:020000040800F2
:10000000F00700208901000867170008971500080D
:10001000651700087F030008751D00080000000038
:100020000000000000000000000000002D18000883
:10003000810300080000000069170008511800083B
:10004000A3010008A3010008A3010008A301000800
:10005000A3010008A3010008A3010008A3010008F0
:10006000A3010008A3010008A3010008A3010008E0
:10007000A3010008A3010008A3010008A3010008D0
:10008000A3010008A3010008A3010008A3010008C0
:10009000A3010008A3010008A3010008A3010008B0
:1000A000A3010008A3010008A3010008A3010008A0
:1000B000A3010008A3010008A3010008A301000890
:1000C000A3010008A3010008A3010008A301000880
:1000D000A30100085D1D0008691D0008A3010008B8
:1000E000A3010008A3010008A301000800F002F822
:1000F00000F03AF80AA090E8000C82448344AAF188
:100100000107DA4501D100F02FF8AFF2090EBAE885
:100110000F0013F0010F18BFFB1A43F0010318473B
:100120007023000090230000103A24BF78C878C1E3
:10013000FAD8520724BF30C830C144BF04680C60ED
:10014000704700000023002400250026103A28BF35
:1001500078C1FBD8520728BF30C148BF0B60704739
:100160001FB51FBD10B510BD00F0CFF81146FFF749
:10017000F7FF01F073FE00F0EDF803B4FFF7F2FFB4
:1001800003BC00F0F5F80000094880470948004723
:10019000FEE7FEE7FEE7FEE7FEE7FEE7FEE7FEE737
:1001A000FEE7FEE704480549054A064B7047000094
:1001B000B3180008ED000008F0010020F00700204F
:1001C000F0030020F0030020032A40F2308010F0FA
:1001D000030C00F0158011F8013BBCF1020F6244E2
:1001E00098BF11F801CB00F8013B38BF11F8013B73
:1001F000A2F1040298BF00F801CB38BF00F8013B20
:1002000011F0030300F04F80083AC0F0088051F865
:10021000043B083A51F804CBA0E80810F5E7121D9A
:100220005CBF51F8043B40F8043BAFF30080D207B9
:1002300024BF11F8013B11F801CB48BF11F8012B85
:1002400024BF00F8013B00F801CB48BF00F8012BA8
:1002500070474FF0000200B5134694469646203989
:1002600022BFA0E80C50A0E80C50B1F12001BFF46F
:10027000F7AF090728BFA0E80C5048BF0CC05DF8D5
:1002800004EB890028BF40F8042B08BF704748BF23
:1002900020F8022B11F0804F18BF00F8012B704797
:1002A00070477047704710B5203AC0F00B80B1E836
:1002B0001850203AA0E81850B1E81850A0E818509B
:1002C000BFF4F5AF5FEA027C24BFB1E81850A0E8A4
:1002D000185044BF18C918C0BDE810405FEA827CBE
:1002E00024BF51F8043B40F8043B08BF7047D207D5
:1002F00028BF31F8023B48BF11F8012B28BF20F876
:10030000023B48BF00F8012B7047754600F02CF8FF
:10031000AE4605006946534620F00700854618B0F2
:1003200020B5FFF73FFFBDE820404FF000064FF03B
:1003300000074FF000084FF0000B21F00701AC461A
:10034000ACE8C009ACE8C009ACE8C009ACE8C00939
:100350008D46704710B50446AFF300802046BDE8D7
:100360001040FFF70ABF0000004870478C010020D2
:1003700001491820ABBEFEE7260002007047FEE7E9
:10038000704772B6FEE710B590F8211000220229DE
:1003900005D00421816380F82020012010BD016870
:1003A0000B6823F00E030B6001680B6823F0010358
:1003B0000B6090F84030C46B012101FA03F36360D5
:1003C00080F8211080F82020104610BD10B590F85C
:1003D00021100024022903D00421816301243DE07F
:1003E00001680A6822F00E020A6001680A6822F0B9
:1003F00001020A601A4A0168914201D1012121E0FB
:10040000174A1432914201D110211BE0144A2832BC
:10041000914201D1891515E0114A3C32914201D136
:1004200089140FE00E4A5032914202D14FF48031CC
:1004300008E00B4A6432914202D14FF4801101E08E
:100440004FF08071064A083A5160012180F821106E
:10045000002180F82010416B01B18847204610BD73
:100460000800024070B5044600F004F90546601C1F
:1004700002D004480078044400F0FCF8401BA0427D
:10048000FAD370BD140000202DE9F84FDFF8B891C1
:100490000024A9F1040B23460F2709F1040AABF14C
:1004A000040EC9E00125A5402A40AA427DD1674E2D
:1004B000D1F804C0ACEB0608B44532D014DCBCF172
:1004C000030F3AD009DCBCF1000F2AD0BCF1010FB8
:1004D0001CD0BCF1020F31D11DE0BCF1110F17D0BF
:1004E000BCF1120F2AD119E0B8F5881F19D006DC2B
:1004F000B8F5803F15D0B8F5801F1FD111E0B8F5D1
:10050000001F0ED0B8F5041F18D10AE0CB6815E023
:10051000CB681B1D12E0CB6808330FE0CB680C33AF
:100520000CE08B682BB1012B4FF0080303D0456121
:1005300004E0042302E0056100E00023FF2A01D863
:10054000064601E000F104064FEA840501D9A5F151
:100550002005D6F8008007FA05FC28EA0C0803FA03
:1005600005F548EA0508C6F800804D68ED0062D53B
:10057000374DAE6946F00106AE61AD6924F0030661
:1005800005F001050095334D06EB050CDCF808502D
:10059000A607360F07FA06F825EA0805DFF8B8803F
:1005A000404503D14FF0000817E044E0DFF8AC808D
:1005B000404502D14FF001080FE0DFF8A48040452C
:1005C00002D14FF0020808E0DFF89880404502D1E0
:1005D0004FF0030801E04FF0040808FA06F848EA73
:1005E0000508CCF808804D68D9F80060ED024D464A
:1005F00001D5164300E096432E604D68DAF800609E
:10060000AD02554601D5164300E096432E604D6875
:10061000DBF80060AD035D4601D5164300E096436C
:100620002E604D68DEF80060ED03754601D5164377
:1006300000E096432E60641C0D682A46E5407FF476
:1006400031AFBDE8F88F0000080401400000111030
:10065000001002400000014000080140000C014071
:1006600000100140001401400AB101617047090403
:10067000FBE700000148806870470000140000207C
:10068000024881680278114481607047140000209C
:10069000074810B5016841F010010160032000F027
:1006A00075F80F2000F006F800F024F8002010BDC7
:1006B0000020024070B50D4D04464FF47A71287841
:1006C000B1FBF0F00A490968B1FBF0F000F0DCFA88
:1006D00048B9102C07D200222146501E00F036F8EF
:1006E00000206C6070BD012070BD0000140000206F
:1006F000200000200C4808B5816941F001018161AA
:10070000816901F001010091C16941F08051C1612D
:10071000C06900F0805000900448416821F0E06119
:1007200041F00071416008BD00100240000001402E
:10073000002809DB00F01F020121914040098000E0
:1007400000F1E020C0F8001170470000F0B40E4B3B
:100750001B680C46C3F30223C3F10705042D00D91F
:100760000425191D072901D2002300E0DB1E012604
:1007700006FA05F1491E214099409E40761E16401A
:100780003143F0BC01F0F7BA0CED00E0064900F08F
:10079000070208684FF6FF03184040EA0220034AA8
:1007A00010430860704700000CED00E00000FA05FF
:1007B0002DE9F0470F46050061D0434E306800F048
:1007C0000700B84209D2306820F007003843306093
:1007D000306800F00700B84251D128683B4C8107CF
:1007E00012D5400703D5606840F4E0606060287867
:1007F000000703D5606840F4605060606068A968D5
:1008000020F0F000084360602878C00728D06868AE
:10081000012810D02168022810D0890700292EDA7B
:10082000616821F0030101436160FFF723FF804607
:1008300041F288390DE021688903EFE78901EDE78E
:10084000FFF718FFA0EB0801494502D90320BDE8D6
:10085000F0876068696800F00C00B0EB810FEFD1A1
:10086000306800F00700B8420BD9306820F007006C
:1008700038433060306800F00700B84201D00120F2
:10088000E5E72878400705D56068E96820F4E0606E
:10089000084360602878000706D56068296920F45D
:1008A000605040EAC100606000F038F86168084AB2
:1008B000C1F30311515CC84006490860064800684E
:1008C000FFF7F8FE0020C2E70020024000100240BF
:1008D0007624000820000020180000200448054964
:1008E00000684968044AC1F30221515CC84070475E
:1008F000200000200010024086240008044805491A
:1009000000684968044AC1F3C221515CC84070477D
:100910002000002000100240862400080E4A516882
:100920000E4801F00C03042B11D0082B0FD10C48FA
:10093000C1F38343C903C05C0AD55168084AC1F3B7
:100940004041921E515C054A5043B0FBF1F07047A4
:1009500004494843704700000010024000127A002A
:100960006624000800093D002DE9F84F040070D00E
:100970002078C04DC00749D06868C0F381000128C5
:1009800007D06868C0F38100022809D16868C003F5
:1009900006D52868800339D560680028E7D035E09F
:1009A0006068B0F5803F0BD010B1B0F5A02F11D02A
:1009B000286820F480302860286820F4802002E035
:1009C000286840F480302860606890B1FFF752FEDC
:1009D00006460AE0286840F480202860F0E700BF5F
:1009E000FFF748FE801B642873D828688003F7D57A
:1009F0000CE0FFF73FFE064605E000BFFFF73AFEBA
:100A0000801B6428F0D828688003F7D420789A4E99
:100A100080074FF001094FF0000839D5686810F0E1
:100A20000C0F07D06868C0F38100022809D16868FC
:100A3000C00306D42868800714D52069012808D18E
:100A400010E02069B0B1C6F80090FFF713FE07462A
:100A500005E00AE1FFF70EFEC01B0228C4D8286893
:100A60008007F7D52868616920F0F80040EAC100E6
:100A700028600DE0C6F80080FFF7FCFD074604E0A3
:100A8000FFF7F8FDC01B022823D828688007F7D499
:100A9000207800072CD57948A169D9B1C0F8009019
:100AA000FFF7E8FD074604E0FFF7E4FDC01B02285E
:100AB0000FD8686A8007F7D571484FF4FA5100687B
:100AC000B0FBF1F0009000BF0098411E0091FAD2F7
:100AD0000EE080E0C0F80080FFF7CCFD074604E0A0
:100AE000FFF7C8FDC01B022875D8686A8007F7D4D5
:100AF0002078400760D5E8690027C00008D4E8697D
:100B000040F08050E861E869012700F080500090D3
:100B10005C480168C90513D40168834641F48071BB
:100B20000160FFF7A7FD824606E000BFFFF7A2FDC8
:100B3000A0EB0A0064284ED8DBF80000C005F5D50C
:100B4000E06801280AD008B1052813D0286A20F0EF
:100B500001002862286A20F0040002E0286A40F0C0
:100B600001002862E06841F2883B98B1FFF782FDFE
:100B700082460BE0286A40F004002862EEE700BFDE
:100B8000FFF778FDA0EB0A0159455AD8286A80077B
:100B9000F6D50CE0FFF76EFD824605E0FFF76AFD33
:100BA000A0EB0A0159454CD8286A8007F6D41FB13A
:100BB000E86920F08050E861E06988B36968C1F3B2
:100BC0008101022944D00228C6F8608004D0FFF7D2
:100BD00051FD044638E034E0FFF74CFD074604E0E1
:100BE000FFF748FDC01B02282BD828688001F7D4E6
:100BF000206AB0F5803F05D16868A16820F4003014
:100C000008436860D4E908010843696821F4741155
:100C100008436860C6F86090FFF72CFD044606E0C4
:100C200025E000BFFFF726FD001B022809D8286831
:100C30008001F7D51BE000BFFFF71CFD001B022859
:100C400002D90320BDE8F88F28688001F4D40EE0B3
:100C50000128F7D06868226A00F48031914204D1FB
:100C6000616A00F47010884201D00120EAE7002098
:100C7000E8E70000001002400000424280044242C7
:100C8000200000200070004010B5401EB0F1807FB1
:100C900001D3012010BD4FF0E02460610F216017E7
:100CA00001F069F80020A06107202061002010BD3C
:100CB00070B590F83C20012A26D0012480F83C40F1
:100CC000022280F83D2003685A689D6822F0700671
:100CD0000A6832435A600D4B02689A4208D0B2F15A
:100CE000804F05D00A4B9A4202D00A4B9A4204D157
:100CF000496825F080031943916080F83D40002148
:100D000080F83C10084670BD022070BD002C0140E8
:100D1000000400400008004010B5040003D094F81F
:100D20003D0010B107E0012010BD002084F83C0018
:100D3000204600F01FF8022084F83D00211D2068A5
:100D400000F0B8FD012084F8460084F83E0084F8E5
:100D50003F0084F8400084F8410084F8420084F8A1
:100D6000430084F8440084F8450084F83D000020E6
:100D700010BD000008B50068B0F1804F08D10548EB
:100D8000C16941F00101C161C06900F0010000903A
:100D900008BD00000010024070B5044690F83C0009
:100DA0000025012817D0012684F83C60022084F831
:100DB0003D002068826822F0770222F47F42826040
:100DC0000868502838D00DDC20284FD005DC90B3BF
:100DD000102811D14AE0022070BD302846D04028AA
:100DE0000AD13BE060282FD070280DD0B0F5805F8D
:100DF00003D0B0F5005F12D0012584F83D600020DB
:100E000084F83C00284670BDCB68D1E901212068F8
:100E100000F08CFD2068816841F0770109E0CB6823
:100E2000D1E90121206800F081FD2068816841F44A
:100E300080418160E1E719E0CA684968206800F0F4
:100E400029FE5021206806E0CA684968206800F041
:100E500032FE6021206800F073FDCEE7CA68496861
:100E6000206800F017FE40212068F4E72268014660
:100E70001046F0E700B585B0002100910191029184
:100E800003910068B0F1804F1BD10F48816941F098
:100E9000080181618069694600F0080004904FF400
:100EA000006000900220019003900848FFF7ECFAE0
:100EB0000748416821F4407141F0E06141F400715C
:100EC000416005B000BD000000100240000C014070
:100ED0000000014070B5044690F83C0000260D4625
:100EE00001280FD0012084F83C006AB1042A1DD0EB
:100EF000082A2FD00C2A3FD00126002084F83C007D
:100F0000304670BD022070BD206800F021FD2068D1
:100F1000816941F0080181612068816921F0040143
:100F20008161206881692A69114311E0206800F01D
:100F300037FD2068816941F4006181612068816921
:100F400021F480618161206881692A6941EA022176
:100F50008161D2E7206800F04FFD2068C16941F04F
:100F60000801C1612068C16921F00401C1612068E4
:100F7000C1692A69114311E0206800F069FD206809
:100F8000C16941F40061C1612068C16921F48061D7
:100F9000C1612068C1692A6941EA0221C161ACE7E7
:100FA00010B5040003D094F83D0010B107E0012013
:100FB00010BD002084F83C00204600F01EF80220FE
:100FC00084F83D00211D206800F074FC012084F8A5
:100FD000460084F83E0084F83F0084F8400084F81E
:100FE000410084F8420084F8430084F8440084F807
:100FF000450084F83D00002010BD704770477047E1
:10100000F8B5016804460868CA684B6910F00F0F0C
:101010004FF0000559D003F0010602F490773743F2
:1010200065D0C10705D0D10503D5616C41F0010140
:101030006164410705D5D90703D0616C41F0020115
:101040006164810705D5D90703D0616C41F00401C3
:101050006164010707D502F02001314303D0616CC0
:1010600041F008016164616C00293AD0800604D522
:10107000900602D5204600F05FFD20684069616C53
:10108000C0F38010090700D460B3204600F02DFDA6
:1010900020684069400621D52068143050E8001FC0
:1010A00021F0400140E80012002AF5D1E06BA8B120
:1010B0006D494163E06BFFF789F9002811D0E06BBF
:1010C000416B01B0BDE8F040084783060FD5930699
:1010D0000DD52046BDE8F84000F02EBD2046FFF7B4
:1010E0008EFFF8BD2046FFF78AFF6564F8BD266BCA
:1010F0002023012E7CD1C6067AD5D60678D508687D
:101100004868009048694FF00206400640D5E16B00
:10111000086840680004000CE8D0A28D8242E5D93E
:10112000E085886920282DD020680C3050E8001F09
:1011300021F4807140E80012002AF5D120681430B3
:1011400050E8001F21F0010140E80012002AF5D10B
:101150002068143050E8001F21F0400140E80012E0
:10116000002AF5D184F84230256320680C3050E81D
:10117000001F21F0100140E80012002AF5D1E06BB9
:10118000FFF701F96663A08DE18D401A81B22AE074
:10119000A08DE18D401A81B2E08D0028A6D00029F3
:1011A000A4D022680C3252E8000F20F4907042E87C
:1011B0000007002FF5D12068143050E8002F22F0EE
:1011C000010240E80027002FF5D184F84230256362
:1011D00020680C3050E8002F22F0100240E8002375
:1011E000002BF5D166632046FFF708FFF8BDFFE747
:1011F00005062BD5150629D594F841002128F5D1EF
:10120000A068B0F5805F01D12069B0B1206A411CAF
:101210002162216800784860E08C401E0004000CC8
:10122000E084E3D12068C16821F08001C1602068BA
:10123000C16841F04001C160D8E7206A0088C0F36E
:1012400008004860206A801C2062E5E74006CDD592
:101250005006CBD5CA68204622F04002CA6084F806
:10126000413000F097F9C1E7DB1A000870B50400BF
:1012700004D094F84100002510B106E0012070BDB3
:1012800084F84050204600F023F8242084F84100E0
:101290002068C16821F40051C160204600F0AEFC16
:1012A0002068016921F4904101612068416921F0C1
:1012B0002A0141612068C16841F40051C160656440
:1012C000202084F8410084F842006563002070BD4E
:1012D00070B586B0002400940194029403942E4EBD
:1012E00003682E49022003222D4DB34226D18B697B
:1012F00043F480438B618B6903F4804304938B69CF
:1013000043F004038B618969039201F004010491A5
:101310000102CDE9001069462846FFF7B5F8281507
:10132000CDE90004694628460294FFF7ADF8002293
:1013300011462520FFF70AFA252028E0194EB3426E
:1013400027D1CB6943F40033CB61CB6903F400337D
:1013500004938B6943F004038B618969039201F064
:10136000040104910421CDE9001069462846FFF7E5
:101370008BF80820CDE90004694628460294FFF75F
:1013800083F8002211462620FFF7E0F92620FFF718
:10139000CFF906B070BD00000038014000100240D7
:1013A000000801400044004090F84230202B01D05A
:1013B0000220704721B11AB10023036300F07ABC08
:1013C000012070472DE9F00F444D016801230227E9
:1013D00005260624002242484FF0030A4FF0040974
:1013E000A94240D190F800C00546BCF1070F6979C9
:1013F0006D7A2FD2DFE80CF004080C1518203300AA
:10140000FE2927D1037025E0FE2908D1077021E0CD
:1014100041728272032902D3514601701AE00270B0
:1014200018E0C1714946F8E70172032D01D9067031
:1014300010E0047043700DE0837A402B04D2294AF7
:10144000D1545B1C837200E00270D9B2ED1EA94238
:1014500000DB047022490122491D23482FE0FA29AC
:10146000DDD14370DBE7214DA94234D1C5781C4959
:10147000082D897918D2DFE805F004080C11191C31
:10148000262CFF2917D1C37015E0FF290CD1C77096
:1014900011E04173012907D1514603E0817304290A
:1014A00002D14946C17006E0C27004E0C173C67043
:1014B00001E00182C4700A4901220D48891DBDE87E
:1014C000F00FFFF771BF028A42EA01210182072172
:1014D000E8E70371E8E7BDE8F00F70470038014026
:1014E0000000002033000020FC00002000440040E9
:1014F000440100202DE9F843044690F84100984645
:1015000016460D46202802D00220BDE8F88385B19A
:101510007EB100206064212084F84100FFF7AAF822
:10152000A6848146E684A0682027B0F5805F02D0BB
:1015300003E00120E9E7206910B12E4600250EE006
:1015400000260CE08021204600F0CFFBA8B9C6B1F0
:1015500016F8010B21684860E08C401EE084E08CA6
:101560004B464FF00002CDF800800028EAD14FF042
:101570004001204600F0B9FB40B184F841700320DF
:10158000C3E735F8020BC0F30800E3E784F84170C5
:101590000020BAE77047FEE72DE9F04385B000254B
:1015A0002B480095019502950395816941F0100142
:1015B0008161816901F010010491816941F020018C
:1015C0008161816901F020010491816941F0040188
:1015D0008161816901F004010491816941F0080190
:1015E00081618069DFF86C8000F0080004900122BE
:1015F00003214046FFF738F8002204214046FFF758
:1016000033F8DFF854904FF480770022394648468B
:10161000FFF72AF803200124CDE90004CDE90240B8
:1016200069464046FEF730FF042002268DE871002F
:1016300069464046FEF728FF01AA009782E870003D
:1016400069464846FEF720FF05B0BDE8F08300007C
:1016500000100240000C01400008014010B58EB09F
:1016600000240794089409940A940B941C2168465A
:101670000C94FEF7EEFD1E484FF08041016040F2F1
:10168000CF21C0E9011440F2CF71C0E90314846195
:10169000FFF742FB08B1FEF774FE4FF4805007904D
:1016A00007A91348FFF778FB08B1FEF76AFE104858
:1016B000FFF776FC08B1FEF764FE0B940BA90C480B
:1016C0000C94FFF7F5FA08B1FEF75BFE6020CDE958
:1016D000000402940C22694605480494FFF7FAFBC3
:1016E00008B1FEF74EFE0248FFF7C4FB0EB010BD76
:1016F000B40000200C4810B50A4901604FF416519F
:101700004160002181600C22C160C0E90412816146
:10171000C161FFF7ABFD002803D0BDE81040FEF724
:1017200030BE10BD00380140FC0000200C4810B550
:101730000A4901604FF4E1314160002181600C22CF
:10174000C160C0E904128161C161FFF78FFD00280B
:1017500003D0BDE81040FEF714BE10BD00440040A9
:1017600044010020FEE7FEE7704770B504461546C9
:10177000084600F009F8204600F006F82846BDE8C3
:10178000704000F001B8000070B5144E002405460A
:1017900005FA04F010F0800F4FF001024FF0020143
:1017A00030460BD0FEF760FF022000F00DFB002258
:1017B00002213046FEF758FF00BF0AE0FEF754FF53
:1017C00000BF002202213046FEF74EFF022000F04B
:1017D000FBFA641CE4B2082CDAD370BD000C0140A3
:1017E000012211020148FEF73FBF0000000801403E
:1017F00070B50C46054600F011F84FF47A73224696
:1018000029460548FFF776FE0120FEF72BFEBDE8CE
:101810007040FFF7E5BF0000FC00002000224FF4FD
:1018200080710148FEF720BF0008014070470000AA
:1018300070B505465FF0000404EB44014819695C8B
:1018400082784078FFF791FF641C052CF4DB70BDB3
:10185000FEF716BF30B58FB028216846FEF7F9FCB9
:1018600014210AA8FEF7F5FC01210804CDE90010B7
:101870000024029402250491CDE907504FF4E010B2
:1018800009906846FFF770F808B172B6FEE70F20BE
:10189000CDE90A054FF48060CDE90C4002210AA889
:1018A0000E94FEF785FF002801D072B6FEE70FB058
:1018B00030BD7047F0B50268194B1A4C1A4D4FF005
:1018C0008047984205D0B84203D0A04201D0A84238
:1018D00003D122F070064A683243984205D0B842DC
:1018E00003D0A04201D0A84203D122F44074CA68B8
:1018F00022434C6922F08002224302608A68C2625D
:101900000A688262984201D109690163012141613B
:101910000169C90703D0016921F001010161F0BD2E
:10192000002C0140000400400008004010B584680D
:1019300042EA032224F47F440A432243826010BD1A
:10194000826822F070020A4342F00701816070470A
:1019500030B5036A026A22F00102026242688469B9
:1019600024F073050C682C4323F002058B682B438D
:101970000A4DA8420BD123F00805CB6822F440722F
:101980002B434D6923F0040315438A692A434260BF
:10199000846149684163036230BD0000002C01404E
:1019A00030B5026A036A23F0100303624368846956
:1019B0000D6824F4E64444EA05248D6822F02002F0
:1019C00042EA05120B4DA8420ED1CD6822F08002EA
:1019D00042EA05124D6923F4406343EA85038D69A9
:1019E00022F0400243EA85034360846149688163D1
:1019F000026230BD002C014030B5036A026A22F455
:101A0000807202624268C46923F4007324F0730593
:101A10000C682C438D6843EA05230C4DA8420ED177
:101A2000CD6823F4006343EA05234D6922F4405254
:101A300042EA05128D6923F4806342EA051242608E
:101A4000C4614968C163036230BD0000002C0140DD
:101A500030B5046A026A22F4805202624268C369A5
:101A60000D6823F4E64343EA05238D6824F400540B
:101A700044EA0534064DA84204D14D6922F480425F
:101A800042EA85124260C36149680164046230BD64
:101A9000002C014010B5036A046A24F001040462BA
:101AA000846924F0F00444EA021423F00A020A4391
:101AB0008461026210BD10B5036A046A24F0100448
:101AC0000462846923F0A00324F4704444EA0232DF
:101AD00043EA01118261016210BD10B5406A002124
:101AE000C185C184FFF78BFA10BD01680C3151E844
:101AF000002F22F4907241E80023002BF5D10168F9
:101B0000143151E8002F22F0010241E80023002B9C
:101B1000F5D1016B012909D101680C3151E8002F81
:101B200022F0100241E80023002BF5D1202180F89B
:101B3000421000210163704708B590F84210222935
:101B400001D0022008BD82684FF480539A4201D12F
:101B5000016921B1816A9A421BD04AB10AE0026848
:101B6000816A5268C2F308020A80816A891C08E00F
:101B7000026972B10268526802F07F020A70816ADB
:101B8000491C8162C18D491E0904090CC18503D01D
:101B90001BE002685268F1E70168CA6822F020027F
:101BA000CA600168CA6822F48072CA6001684A6922
:101BB00022F001024A61202180F842100021416395
:101BC000026B012A03D0FFF7FDFB002008BD016373
:101BD00001680C3151E8002F22F0100241E8002387
:101BE000002BF5D101680A68D20602D50A68496857
:101BF0000091818DFFF702FAE7E7000070B5044617
:101C000000680169E26821F44051114301612169D2
:101C1000A0680843616908432168CA6841F20C63FF
:101C20009A430243CA6020684169A26921F4407165
:101C3000114341611E492068884202D1FEF75EFED1
:101C400001E0FEF74BFE00EBC00101EB0012606803
:101C500064218000B2FBF0F3B3FBF1F36FF01806E0
:101C60007343B2FBF0F5B2FBF0F605EB83053223CC
:101C700003EB0515B5FBF1F5B6FBF1F605F0F00544
:101C800005EB0615B2FBF0F6B2FBF0F0B0FBF1F09D
:101C90006FF01802504306EB800003EB0010B0FB1E
:101CA000F1F0216800F00F002844886070BD00004A
:101CB0000038014081628285C28500214164222171
:101CC00080F84210016921B10168CA6842F480724B
:101CD000CA6001684A6942F001024A610068C1684D
:101CE00041F02001C160002070472DE9F84398467B
:101CF00017460D460446089E24E0701C22D0FEF7CD
:101D0000B9FCA0EB0800B0421AD8CEB12068C16877
:101D1000490717D5802D15D0402D13D00168C94330
:101D200009070FD401680025406800902046FFF79E
:101D3000DCFE0820606484F840500120BDE8F88390
:101D40000320FBE72068006835EA000004D000208B
:101D5000B842D2D00020F1E70120F9E70148FFF7AF
:101D60004FB90000FC0000200148FFF749B900000E
:101D700044010020FEE70907090E002804DB00F1FA
:101D8000E02080F80014704700F00F0000F1E02020
:101D900080F8141D7047000010B5094910F1FF4F7D
:101DA00001D3002002E0884200DD084600F098F9E7
:101DB000044900F08BFA00F055FA80B210BD000023
:101DC0000000B44300F07F45002101E000BF491C42
:101DD0008142FBD37047000030B5054687B01446FA
:101DE0000846FFF7D9FFFF218DF800108DF801108C
:101DF0008DF8025009218DF8031003218DF804108D
:101E00002A218DF805108DF80600000A8DF80700CC
:101E100000208DF808008DF809008DF80A40200A8E
:101E20008DF80B00002102206A46135C401C194407
:101E3000C9B20C28F9DBC8439DE80E0003AC84E866
:101E40000E008DF818004FF47A730D2203A9024892
:101E5000FFF750FB07B030BD44010020FEF718FC2F
:101E6000FFF7F8FCFFF798FBFFF744FCFFF7F6FBE2
:101E7000FFF75CFCFFF7B4FC01220D490D48FFF7AA
:101E800093FA0B490122491C0B48FFF78DFA084CC5
:101E90000025641F607810B100F010F86570A0781C
:101EA00010B100F079F8A5700120FEF7DBFAF1E738
:101EB00005000020FC00002044010020F8B5324D50
:101EC000002600962946287A0124897A2F4A01287B
:101ED00006D002281CD003282DD0042833D051E08E
:101EE00002294FD3108840BA00F0DCF9284900F0ED
:101EF000F7F8284900F0EAF9014641F28832E8791A
:101F0000FFF76AFF21468DF800406A46012037E05E
:101F100000F064F8A0F57F41FF3903D0010A8DF885
:101F2000001002E0FF208DF800008DF80100022172
:101F30006A46084624E000F0B1F821468DF80040DA
:101F40006A4603201CE00F291CD3104B00200F3BD6
:101F500000EB4001401C575C5F548F18194497F800
:101F600001C081F801C0BF788F700528F0DB0748F9
:101F70000F38FFF75DFC21468DF800406A460420CB
:101F800000F060F8AE72F8BD0000002033000020C1
:101F900000F07F450000B44370B50D4CE07A98B96D
:101FA000207B022810D30B4DFFF738FC642301225D
:101FB00029460948FFF79EFA64230122691C064856
:101FC000FFF798FAFFF70CFC0020207370BD0000AB
:101FD0000000002073000020FC0000207CB515A14B
:101FE0006A46D1E90001CDE9000100210220135C1D
:101FF000401C1944C9B20728F9DBC8430F4C8DF8BF
:1020000007000020E07020716423082269460C4814
:10201000FFF770FAFEF72EFB054603E0207908B1C2
:10202000208A7CBDFEF726FB401B1428F6D34FF612
:10203000FF707CBDFFFF0104023802000000002099
:102040004401002030B591B00C464FF0FE018DF8F0
:1020500000108DF8011004F103018DF802100E49F3
:1020600013006D46C9798DF803108DF804004FF008
:10207000050107D034B122461946681DFEF7A4F8C1
:10208000641DE1B2FA206854491CC9B26846FFF7E2
:10209000AFFB11B030BD0000000000201CB50DA149
:1020A0006A46D1E90001CDE9000100210220135C5C
:1020B000401C1944C9B20728F9DBC8438DF8070052
:1020C0006423082269460548FFF714FA3220FEF718
:1020D000C9F91CBDFFFF0104032880004401002052
:1020E0004FF47F0C1CEAD0121EBF1CEAD11392EAF7
:1020F0000C0F93EA0C0F00F0858090EA010F48BFA7
:1021000042F4807240F4000C41F400002CF07F4156
:1021100020F07F4000B58142A2EB03020FF2081CC1
:10212000ACEB504EC0F100009EF800E04FEA4E0EBE
:1021300000FB0EFC38BF49004FEA2C1C02F5FA02E6
:102140000CFB0EF34FEACE1E4FEA112C4FEAC121D1
:102150000EEB635E42EB22420EFB0CFC4FEA1C537B
:1021600000FB03114FEA112C4FEA01310EFB0CFC6E
:102170004FEADC4C00FB0C11C14228BF09184CEBA4
:1021800003335DF804EB10EB410143EBC250B2F5B1
:102190007C0F38BF704729D512F0F00F1CBF00F13B
:1021A000C04000F0004070470081828384858687AC
:1021B00088898B8C8D8E8F919293959697999A9C06
:1021C0009D9FA0A2A3A5A7A8AAACAEB0B2B3B5B775
:1021D000B9BCBEC0C2C5C7C9CCCED1D4D7D9DCDF4B
:1021E000E2E6E9ECF0F3F7FAFE0000004FEA400CFB
:1021F0000CF1807CBCF17E4F28BF7047B0F1C0402D
:1022000000F02BB990EA010F0CEAD11348BF42F459
:102210008072624538BF634507D213F47F0F16D032
:1022200080EA010000F00040704710B500F0CFF8E0
:10223000097EFC3E00F005B880EA010000F0004095
:10224000704780EA010000F0004000F006B912F487
:102250007F0F04BF0248704780EA010000F0FDB81C
:102260000000C07FC10DD1F19E0206DB4FEA0023C2
:1022700043F0004323FA02F07047004207D54FEACB
:102280004001B1F1FE4F02D24FF00000704710B58F
:1022900000F09DF849922480002070476FEA2000EA
:1022A00070470000B0FA80F310FA03F2C3F19D0307
:1022B0000AD0D90501EB1220530638BF704700F150
:1022C000010008BF20F00100704700004FF47F0CB0
:1022D0001CEAD0121EBF1CEAD11392EA0C0F93EA3B
:1022E0000C0F00F0478090EA010F48BF42F4807263
:1022F0004FF0004C4CEA00204CEA012102EB0302B3
:10230000A0FB0113A2F50002002918BF43F001034E
:102310005B0028BF4FEA330342EB22425FEA132CF3
:102320004CEBC2502EBFBCEB436FB2F57C0F704735
:102330004FEA036CBCF1004F08BF20F00100B2F57A
:102340007C0F38BF70470BD582F0FF0212F5803F3B
:10235000C8BF704700F1C040D8BF00F000407047D0
:1023600000F5000C5FEA4C0C48BF7047B0F1C0406C
:1023700000F073B890EA010F0CEAD11348BF42F4A1
:102380008072624538BF634504D280EA010000F0E4
:102390000040704710B500F01AF800BF8900013EF8
:1023A00000F007B800F009B85FEA410C5FEA1C6C66
:1023B00008D080EA010000F050B85FEA400C5FEA04
:1023C0001C6CF6D14FF00040A0F5800070470EF174
:1023D000020E2EF0030E5EF8044B244204D44FEAA2
:1023E0004102B2F17F4F11D84FEA4003B3F17F4F62
:1023F0000CD80ED14FEAD07CB2F17F4F0CEB4C0CD5
:102400000CF1020C08BF4CEBD17C04E04FF0080C3F
:1024100001E04FEAD17C0CEB4C0324FA03F404F006
:102420000704B4F1040C06D20EEB840CBDE8104096
:102430004CF0010C6047DFE80CF0070802024FF097
:102440000040A0F5800010BD0846420018BFD2F140
:10245000807288BF00F0004010BDFF2141EAD050DB
:10246000C0057047010202030405060708090A0BAC
:102470000C0D0E0F10100000000000000000010203
:10248000030406070809000000000102030400001D
:10249000B0240008000000202400000028010008EB
:1024A000D424000824000020CC07000044010008C8
:1024B000000000000000000000000000000000001C
:1024C00000000000010000001000000000000000FB
:0424D00000127A007C
:04000005080000ED02
:00000001FF
